{
  "address": "0x976b01c02c636Dd5901444B941442FD70b86dcd5",
  "abi": [
    {
      "inputs": [
        {
          "internalType": "address",
          "name": "_governance",
          "type": "address"
        },
        {
          "internalType": "address",
          "name": "_keep3rV1",
          "type": "address"
        }
      ],
      "stateMutability": "nonpayable",
      "type": "constructor"
    },
    {
      "inputs": [],
      "name": "Cooldown",
      "type": "error"
    },
    {
      "inputs": [],
      "name": "NoDrawableAmount",
      "type": "error"
    },
    {
      "inputs": [],
      "name": "OnlyGovernance",
      "type": "error"
    },
    {
      "inputs": [],
      "name": "OnlyMinter",
      "type": "error"
    },
    {
      "inputs": [],
      "name": "OnlyPendingGovernance",
      "type": "error"
    },
    {
      "inputs": [],
      "name": "ZeroAddress",
      "type": "error"
    },
    {
      "anonymous": false,
      "inputs": [
        {
          "indexed": false,
          "internalType": "address",
          "name": "_token",
          "type": "address"
        },
        {
          "indexed": false,
          "internalType": "uint256",
          "name": "_amount",
          "type": "uint256"
        },
        {
          "indexed": false,
          "internalType": "address",
          "name": "_to",
          "type": "address"
        }
      ],
      "name": "DustSent",
      "type": "event"
    },
    {
      "anonymous": false,
      "inputs": [
        {
          "indexed": false,
          "internalType": "address",
          "name": "_pendingGovernance",
          "type": "address"
        }
      ],
      "name": "GovernanceProposal",
      "type": "event"
    },
    {
      "anonymous": false,
      "inputs": [
        {
          "indexed": false,
          "internalType": "address",
          "name": "_governance",
          "type": "address"
        }
      ],
      "name": "GovernanceSet",
      "type": "event"
    },
    {
      "inputs": [],
      "name": "acceptGovernance",
      "outputs": [],
      "stateMutability": "nonpayable",
      "type": "function"
    },
    {
      "inputs": [],
      "name": "acceptKeep3rV1Governance",
      "outputs": [],
      "stateMutability": "nonpayable",
      "type": "function"
    },
    {
      "inputs": [
        {
          "internalType": "address",
          "name": "_job",
          "type": "address"
        }
      ],
      "name": "addJob",
      "outputs": [],
      "stateMutability": "nonpayable",
      "type": "function"
    },
    {
      "inputs": [
        {
          "internalType": "address",
          "name": "_job",
          "type": "address"
        },
        {
          "internalType": "uint256",
          "name": "_amount",
          "type": "uint256"
        }
      ],
      "name": "addKPRCredit",
      "outputs": [],
      "stateMutability": "nonpayable",
      "type": "function"
    },
    {
      "inputs": [
        {
          "internalType": "address",
          "name": "recipient",
          "type": "address"
        },
        {
          "internalType": "uint256",
          "name": "amount",
          "type": "uint256"
        }
      ],
      "name": "addRecipient",
      "outputs": [],
      "stateMutability": "nonpayable",
      "type": "function"
    },
    {
      "inputs": [
        {
          "internalType": "address",
          "name": "_voter",
          "type": "address"
        },
        {
          "internalType": "uint256",
          "name": "_amount",
          "type": "uint256"
        }
      ],
      "name": "addVotes",
      "outputs": [],
      "stateMutability": "nonpayable",
      "type": "function"
    },
    {
      "inputs": [
        {
          "internalType": "address",
          "name": "_liquidity",
          "type": "address"
        }
      ],
      "name": "approveLiquidity",
      "outputs": [],
      "stateMutability": "nonpayable",
      "type": "function"
    },
    {
      "inputs": [
        {
          "internalType": "address",
          "name": "",
          "type": "address"
        }
      ],
      "name": "caps",
      "outputs": [
        {
          "internalType": "uint256",
          "name": "",
          "type": "uint256"
        }
      ],
      "stateMutability": "view",
      "type": "function"
    },
    {
      "inputs": [
        {
          "internalType": "address",
          "name": "_keeper",
          "type": "address"
        }
      ],
      "name": "dispute",
      "outputs": [],
      "stateMutability": "nonpayable",
      "type": "function"
    },
    {
      "inputs": [],
      "name": "draw",
      "outputs": [
        {
          "internalType": "uint256",
          "name": "_amount",
          "type": "uint256"
        }
      ],
      "stateMutability": "nonpayable",
      "type": "function"
    },
    {
      "inputs": [],
      "name": "governance",
      "outputs": [
        {
          "internalType": "address",
          "name": "",
          "type": "address"
        }
      ],
      "stateMutability": "view",
      "type": "function"
    },
    {
      "inputs": [],
      "name": "keep3rV1",
      "outputs": [
        {
          "internalType": "address",
          "name": "",
          "type": "address"
        }
      ],
      "stateMutability": "view",
      "type": "function"
    },
    {
      "inputs": [
        {
          "internalType": "address",
          "name": "_account",
          "type": "address"
        },
        {
          "internalType": "uint256",
          "name": "_amount",
          "type": "uint256"
        }
      ],
      "name": "mint",
      "outputs": [],
      "stateMutability": "nonpayable",
      "type": "function"
    },
    {
      "inputs": [
        {
          "internalType": "uint256",
          "name": "_amount",
          "type": "uint256"
        }
      ],
      "name": "mint",
      "outputs": [],
      "stateMutability": "nonpayable",
      "type": "function"
    },
    {
      "inputs": [],
      "name": "minter",
      "outputs": [
        {
          "internalType": "address",
          "name": "",
          "type": "address"
        }
      ],
      "stateMutability": "view",
      "type": "function"
    },
    {
      "inputs": [
        {
          "internalType": "address",
          "name": "",
          "type": "address"
        }
      ],
      "name": "next",
      "outputs": [
        {
          "internalType": "uint256",
          "name": "",
          "type": "uint256"
        }
      ],
      "stateMutability": "view",
      "type": "function"
    },
    {
      "inputs": [],
      "name": "pendingGovernance",
      "outputs": [
        {
          "internalType": "address",
          "name": "",
          "type": "address"
        }
      ],
      "stateMutability": "view",
      "type": "function"
    },
    {
      "inputs": [],
      "name": "recipients",
      "outputs": [
        {
          "internalType": "address[]",
          "name": "",
          "type": "address[]"
        }
      ],
      "stateMutability": "view",
      "type": "function"
    },
    {
      "inputs": [],
      "name": "recipientsCaps",
      "outputs": [
        {
          "components": [
            {
              "internalType": "address",
              "name": "recipient",
              "type": "address"
            },
            {
              "internalType": "uint256",
              "name": "caps",
              "type": "uint256"
            }
          ],
          "internalType": "struct IKeep3rV1Proxy.Recipient[]",
          "name": "_memory",
          "type": "tuple[]"
        }
      ],
      "stateMutability": "view",
      "type": "function"
    },
    {
      "inputs": [
        {
          "internalType": "address",
          "name": "_job",
          "type": "address"
        }
      ],
      "name": "removeJob",
      "outputs": [],
      "stateMutability": "nonpayable",
      "type": "function"
    },
    {
      "inputs": [
        {
          "internalType": "address",
          "name": "recipient",
          "type": "address"
        }
      ],
      "name": "removeRecipient",
      "outputs": [],
      "stateMutability": "nonpayable",
      "type": "function"
    },
    {
      "inputs": [
        {
          "internalType": "address",
          "name": "_voter",
          "type": "address"
        },
        {
          "internalType": "uint256",
          "name": "_amount",
          "type": "uint256"
        }
      ],
      "name": "removeVotes",
      "outputs": [],
      "stateMutability": "nonpayable",
      "type": "function"
    },
    {
      "inputs": [
        {
          "internalType": "address",
          "name": "_keeper",
          "type": "address"
        }
      ],
      "name": "resolve",
      "outputs": [],
      "stateMutability": "nonpayable",
      "type": "function"
    },
    {
      "inputs": [
        {
          "internalType": "address",
          "name": "_keeper",
          "type": "address"
        }
      ],
      "name": "revoke",
      "outputs": [],
      "stateMutability": "nonpayable",
      "type": "function"
    },
    {
      "inputs": [
        {
          "internalType": "address",
          "name": "_liquidity",
          "type": "address"
        }
      ],
      "name": "revokeLiquidity",
      "outputs": [],
      "stateMutability": "nonpayable",
      "type": "function"
    },
    {
      "inputs": [
        {
          "internalType": "address",
          "name": "_token",
          "type": "address"
        },
        {
          "internalType": "uint256",
          "name": "_amount",
          "type": "uint256"
        },
        {
          "internalType": "address",
          "name": "_to",
          "type": "address"
        }
      ],
      "name": "sendDust",
      "outputs": [],
      "stateMutability": "nonpayable",
      "type": "function"
    },
    {
      "inputs": [
        {
          "internalType": "address",
          "name": "_governance",
          "type": "address"
        }
      ],
      "name": "setGovernance",
      "outputs": [],
      "stateMutability": "nonpayable",
      "type": "function"
    },
    {
      "inputs": [
        {
          "internalType": "address",
          "name": "_keep3rHelper",
          "type": "address"
        }
      ],
      "name": "setKeep3rHelper",
      "outputs": [],
      "stateMutability": "nonpayable",
      "type": "function"
    },
    {
      "inputs": [
        {
          "internalType": "address",
          "name": "_keep3rV1",
          "type": "address"
        }
      ],
      "name": "setKeep3rV1",
      "outputs": [],
      "stateMutability": "nonpayable",
      "type": "function"
    },
    {
      "inputs": [
        {
          "internalType": "address",
          "name": "_governance",
          "type": "address"
        }
      ],
      "name": "setKeep3rV1Governance",
      "outputs": [],
      "stateMutability": "nonpayable",
      "type": "function"
    },
    {
      "inputs": [
        {
          "internalType": "address",
          "name": "_minter",
          "type": "address"
        }
      ],
      "name": "setMinter",
      "outputs": [],
      "stateMutability": "nonpayable",
      "type": "function"
    },
    {
      "inputs": [
        {
          "internalType": "address",
          "name": "_bonded",
          "type": "address"
        },
        {
          "internalType": "address",
          "name": "_keeper",
          "type": "address"
        },
        {
          "internalType": "uint256",
          "name": "_amount",
          "type": "uint256"
        }
      ],
      "name": "slash",
      "outputs": [],
      "stateMutability": "nonpayable",
      "type": "function"
    }
  ],
  "transactionHash": "0x0170dcc50dcd0071767a39ea1c6aa570e0c391a4d1235a96b5776044247fe0af",
  "args": [
    "0x0D5Dc686d0a2ABBfDaFDFb4D0533E886517d4E83",
    "0x1cEB5cB57C4D4E2b2433641b95Dd330A33185A44"
  ],
  "numDeployments": 2,
  "solcInputHash": "d68cdcc83b8485f178bf40cf900adfd5",
  "bytecode": "0x60806040523480156200001157600080fd5b5060405162001a3238038062001a32833981016040819052620000349162000083565b600080546001600160a01b039384166001600160a01b03199182161790915560028054929093169116179055620000bb565b80516001600160a01b03811681146200007e57600080fd5b919050565b600080604083850312156200009757600080fd5b620000a28362000066565b9150620000b26020840162000066565b90509250929050565b61196780620000cb6000396000f3fe608060405234801561001057600080fd5b50600436106101f05760003560e01c8063966abd001161010f578063d8ae6faf116100a2578063f39c38a011610071578063f39c38a014610433578063f75f9f7b14610446578063f798224314610459578063fca3b5aa1461046c57600080fd5b8063d8ae6faf146103e7578063de63298d146103fa578063e74f82391461040d578063ec00cdfc1461042057600080fd5b8063b600702a116100de578063b600702a14610399578063ba9b4d65146103ac578063c5198abc146103c1578063ce6a0880146103d457600080fd5b8063966abd0014610340578063a0712d6814610353578063ab033ea914610366578063ab73e3161461037957600080fd5b806340c10f191161018757806366d97b211161015657806366d97b21146102e757806372da828a1461030757806374a8f1031461031a578063807119891461032d57600080fd5b806340c10f191461029b57806355ea6c47146102ae5780635aa6e675146102c157806364bb43ee146102d457600080fd5b806312a29198116101c357806312a29198146102655780631ef94b9114610278578063238efcbc1461028b5780633619cb721461029357600080fd5b806307546172146101f55780630770f809146102255780630e57d4ce1461023a5780630eecae211461024f575b600080fd5b600354610208906001600160a01b031681565b6040516001600160a01b0390911681526020015b60405180910390f35b610238610233366004611677565b61047f565b005b61024261050d565b60405161021c919061178b565b61025761051e565b60405190815260200161021c565b610238610273366004611677565b610609565b600254610208906001600160a01b031681565b61023861065a565b6102386106e3565b6102386102a93660046116ce565b610778565b6102386102bc366004611677565b6107b1565b600054610208906001600160a01b031681565b6102386102e2366004611677565b61080e565b6102576102f5366004611677565b60046020526000908152604090205481565b610238610315366004611677565b61086b565b610238610328366004611677565b6108c8565b61023861033b366004611677565b610925565b61023861034e3660046116f8565b610982565b610238610361366004611756565b610a98565b610238610374366004611677565b610ad0565b610257610387366004611677565b60056020526000908152604090205481565b6102386103a7366004611677565b610b4f565b6103b4610bac565b60405161021c91906117d8565b6102386103cf366004611677565b610cb7565b6102386103e23660046116ce565b610d14565b6102386103f53660046116ce565b610daa565b6102386104083660046116ce565b610e0e565b61023861041b366004611692565b610e72565b61023861042e366004611677565b610f10565b600154610208906001600160a01b031681565b610238610454366004611677565b610f86565b6102386104673660046116ce565b610fe3565b61023861047a366004611677565b611036565b6000546001600160a01b031633146104aa576040516354348f0360e01b815260040160405180910390fd5b60025460405163ab033ea960e01b81526001600160a01b0383811660048301529091169063ab033ea9906024015b600060405180830381600087803b1580156104f257600080fd5b505af1158015610506573d6000803e3d6000fd5b5050505050565b606061051960066110ac565b905090565b3360009081526005602052604081205442101561054e5760405163b0782df760e01b815260040160405180910390fd5b3360009081526004602052604090205461057b57604051633faaf86560e21b815260040160405180910390fd5b3360009081526005602052604090205462093a809061059a904261187b565b11156105c2576105ad4262093a80611863565b336000908152600560205260409020556105ea565b336000908152600560205260408120805462093a8092906105e4908490611863565b90915550505b50336000818152600460205260409020549061060690826110c0565b90565b6000546001600160a01b03163314610634576040516354348f0360e01b815260040160405180910390fd5b61063f6006826111a9565b506001600160a01b0316600090815260046020526040812055565b6001546001600160a01b0316331461068557604051637ef5703160e11b815260040160405180910390fd5b60018054600080546001600160a01b0383166001600160a01b031991821681179092559091169091556040519081527fc73be659241aade67e9a059bcf21494955018b213dbd1179054ccf928b13f3b69060200160405180910390a1565b6000546001600160a01b0316331461070e576040516354348f0360e01b815260040160405180910390fd5b600260009054906101000a90046001600160a01b03166001600160a01b031663238efcbc6040518163ffffffff1660e01b8152600401600060405180830381600087803b15801561075e57600080fd5b505af1158015610772573d6000803e3d6000fd5b50505050565b6000546001600160a01b031633146107a3576040516354348f0360e01b815260040160405180910390fd5b6107ad82826110c0565b5050565b6000546001600160a01b031633146107dc576040516354348f0360e01b815260040160405180910390fd5b6002546040516355ea6c4760e01b81526001600160a01b038381166004830152909116906355ea6c47906024016104d8565b6000546001600160a01b03163314610839576040516354348f0360e01b815260040160405180910390fd5b60025460405163325da1f760e11b81526001600160a01b038381166004830152909116906364bb43ee906024016104d8565b6000546001600160a01b03163314610896576040516354348f0360e01b815260040160405180910390fd5b60025460405163396d414560e11b81526001600160a01b038381166004830152909116906372da828a906024016104d8565b6000546001600160a01b031633146108f3576040516354348f0360e01b815260040160405180910390fd5b6002546040516374a8f10360e01b81526001600160a01b038381166004830152909116906374a8f103906024016104d8565b6000546001600160a01b03163314610950576040516354348f0360e01b815260040160405180910390fd5b600254604051638071198960e01b81526001600160a01b038381166004830152909116906380711989906024016104d8565b6000546001600160a01b031633146109ad576040516354348f0360e01b815260040160405180910390fd5b6001600160a01b0381166109d45760405163d92e233d60e01b815260040160405180910390fd5b6001600160a01b03831673eeeeeeeeeeeeeeeeeeeeeeeeeeeeeeeeeeeeeeee1415610a35576040516001600160a01b0382169083156108fc029084906000818181858888f19350505050158015610a2f573d6000803e3d6000fd5b50610a49565b610a496001600160a01b03841682846111c7565b604080516001600160a01b0385811682526020820185905283168183015290517f9a3055ded8c8b5f21bbf4946c5afab6e1fa8b3f057922658e5e1ade125fb0b1e9181900360600190a1505050565b6003546001600160a01b03163314610ac357604051639cdc2ed560e01b815260040160405180910390fd5b610acd33826110c0565b50565b6000546001600160a01b03163314610afb576040516354348f0360e01b815260040160405180910390fd5b600180546001600160a01b0319166001600160a01b0383169081179091556040519081527fe987aaedf9d279143bdf1eee16cf1d0feb47742867d81083df8d6cd0a5ac857f9060200160405180910390a150565b6000546001600160a01b03163314610b7a576040516354348f0360e01b815260040160405180910390fd5b600254604051635b00381560e11b81526001600160a01b0383811660048301529091169063b600702a906024016104d8565b6060610bb86006611219565b67ffffffffffffffff811115610bd057610bd061191b565b604051908082528060200260200182016040528015610c1557816020015b6040805180820190915260008082526020820152815260200190600190039081610bee5790505b50905060005b610c256006611219565b811015610cb3576040805180820190915280610c42600684611223565b6001600160a01b0316815260200160046000610c5f600686611223565b6001600160a01b03166001600160a01b0316815260200190815260200160002054815250828281518110610c9557610c95611905565b60200260200101819052508080610cab906118be565b915050610c1b565b5090565b6000546001600160a01b03163314610ce2576040516354348f0360e01b815260040160405180910390fd5b60025460405163314662af60e21b81526001600160a01b0383811660048301529091169063c5198abc906024016104d8565b6000546001600160a01b03163314610d3f576040516354348f0360e01b815260040160405180910390fd5b60025460405163019cd41160e71b81526001600160a01b038481166004830152602482018490529091169063ce6a0880906044015b600060405180830381600087803b158015610d8e57600080fd5b505af1158015610da2573d6000803e3d6000fd5b505050505050565b6000546001600160a01b03163314610dd5576040516354348f0360e01b815260040160405180910390fd5b60025460405163d8ae6faf60e01b81526001600160a01b038481166004830152602482018490529091169063d8ae6faf90604401610d74565b6000546001600160a01b03163314610e39576040516354348f0360e01b815260040160405180910390fd5b60025460405163de63298d60e01b81526001600160a01b038481166004830152602482018490529091169063de63298d90604401610d74565b6000546001600160a01b03163314610e9d576040516354348f0360e01b815260040160405180910390fd5b60025460405163e74f823960e01b81526001600160a01b0385811660048301528481166024830152604482018490529091169063e74f823990606401600060405180830381600087803b158015610ef357600080fd5b505af1158015610f07573d6000803e3d6000fd5b50505050505050565b6000546001600160a01b03163314610f3b576040516354348f0360e01b815260040160405180910390fd5b806001600160a01b038116610f635760405163d92e233d60e01b815260040160405180910390fd5b50600280546001600160a01b0319166001600160a01b0392909216919091179055565b6000546001600160a01b03163314610fb1576040516354348f0360e01b815260040160405180910390fd5b60025460405163f75f9f7b60e01b81526001600160a01b0383811660048301529091169063f75f9f7b906024016104d8565b6000546001600160a01b0316331461100e576040516354348f0360e01b815260040160405180910390fd5b61101960068361122f565b506001600160a01b03909116600090815260046020526040902055565b6000546001600160a01b03163314611061576040516354348f0360e01b815260040160405180910390fd5b806001600160a01b0381166110895760405163d92e233d60e01b815260040160405180910390fd5b50600380546001600160a01b0319166001600160a01b0392909216919091179055565b606060006110b983611244565b9392505050565b60025460405163140e25ad60e31b8152600481018390526001600160a01b039091169063a0712d6890602401600060405180830381600087803b15801561110657600080fd5b505af115801561111a573d6000803e3d6000fd5b505060025460405163a9059cbb60e01b81526001600160a01b03868116600483015260248201869052909116925063a9059cbb9150604401602060405180830381600087803b15801561116c57600080fd5b505af1158015611180573d6000803e3d6000fd5b505050506040513d601f19601f820116820180604052508101906111a49190611734565b505050565b60006111be836001600160a01b0384166112a0565b90505b92915050565b604080516001600160a01b038416602482015260448082018490528251808303909101815260649091019091526020810180516001600160e01b031663a9059cbb60e01b1790526111a4908490611393565b60006111c1825490565b60006111be838361146a565b60006111be836001600160a01b038416611494565b60608160000180548060200260200160405190810160405280929190818152602001828054801561129457602002820191906000526020600020905b815481526020019060010190808311611280575b50505050509050919050565b600081815260018301602052604081205480156113895760006112c460018361187b565b85549091506000906112d89060019061187b565b905081811461133d5760008660000182815481106112f8576112f8611905565b906000526020600020015490508087600001848154811061131b5761131b611905565b6000918252602080832090910192909255918252600188019052604090208390555b855486908061134e5761134e6118ef565b6001900381819060005260206000200160009055905585600101600086815260200190815260200160002060009055600193505050506111c1565b60009150506111c1565b60006113e8826040518060400160405280602081526020017f5361666545524332303a206c6f772d6c6576656c2063616c6c206661696c6564815250856001600160a01b03166114e39092919063ffffffff16565b8051909150156111a457808060200190518101906114069190611734565b6111a45760405162461bcd60e51b815260206004820152602a60248201527f5361666545524332303a204552433230206f7065726174696f6e20646964206e6044820152691bdd081cdd58d8d9595960b21b60648201526084015b60405180910390fd5b600082600001828154811061148157611481611905565b9060005260206000200154905092915050565b60008181526001830160205260408120546114db575081546001818101845560008481526020808220909301849055845484825282860190935260409020919091556111c1565b5060006111c1565b60606114f284846000856114fa565b949350505050565b60608247101561155b5760405162461bcd60e51b815260206004820152602660248201527f416464726573733a20696e73756666696369656e742062616c616e636520666f6044820152651c8818d85b1b60d21b6064820152608401611461565b843b6115a95760405162461bcd60e51b815260206004820152601d60248201527f416464726573733a2063616c6c20746f206e6f6e2d636f6e74726163740000006044820152606401611461565b600080866001600160a01b031685876040516115c5919061176f565b60006040518083038185875af1925050503d8060008114611602576040519150601f19603f3d011682016040523d82523d6000602084013e611607565b606091505b5091509150611617828286611622565b979650505050505050565b606083156116315750816110b9565b8251156116415782518084602001fd5b8160405162461bcd60e51b81526004016114619190611830565b80356001600160a01b038116811461167257600080fd5b919050565b60006020828403121561168957600080fd5b6111be8261165b565b6000806000606084860312156116a757600080fd5b6116b08461165b565b92506116be6020850161165b565b9150604084013590509250925092565b600080604083850312156116e157600080fd5b6116ea8361165b565b946020939093013593505050565b60008060006060848603121561170d57600080fd5b6117168461165b565b92506020840135915061172b6040850161165b565b90509250925092565b60006020828403121561174657600080fd5b815180151581146110b957600080fd5b60006020828403121561176857600080fd5b5035919050565b60008251611781818460208701611892565b9190910192915050565b6020808252825182820181905260009190848201906040850190845b818110156117cc5783516001600160a01b0316835292840192918401916001016117a7565b50909695505050505050565b602080825282518282018190526000919060409081850190868401855b8281101561182357815180516001600160a01b031685528601518685015292840192908501906001016117f5565b5091979650505050505050565b602081526000825180602084015261184f816040850160208701611892565b601f01601f19169190910160400192915050565b60008219821115611876576118766118d9565b500190565b60008282101561188d5761188d6118d9565b500390565b60005b838110156118ad578181015183820152602001611895565b838111156107725750506000910152565b60006000198214156118d2576118d26118d9565b5060010190565b634e487b7160e01b600052601160045260246000fd5b634e487b7160e01b600052603160045260246000fd5b634e487b7160e01b600052603260045260246000fd5b634e487b7160e01b600052604160045260246000fdfea26469706673582212205230404e3f738a545dd096577face1a7d0684a3a073d39a9363caf6b5182007864736f6c63430008060033",
  "devdoc": {
    "kind": "dev",
    "methods": {
      "sendDust(address,uint256,address)": {
        "params": {
          "_amount": "The amount of the token that will be transferred",
          "_to": "The address that will receive the idle funds",
          "_token": "The token that will be transferred"
        }
      }
    },
    "version": 1
  },
  "userdoc": {
    "errors": {
      "ZeroAddress()": [
        {
          "notice": "Throws if a variable is assigned to the zero address"
        }
      ]
    },
    "events": {
      "DustSent(address,uint256,address)": {
        "notice": "Emitted when dust is sent"
      }
    },
    "kind": "user",
    "methods": {
      "sendDust(address,uint256,address)": {
        "notice": "Allows an authorized user to transfer the tokens or eth that may have been left in a contract"
      }
    },
    "version": 1
  },
  "storageLayout": {
    "storage": [
      {
        "astId": 2884,
        "contract": "contracts/Keep3rV1Proxy.sol:Keep3rV1Proxy",
        "label": "governance",
        "offset": 0,
        "slot": "0",
        "type": "t_address"
      },
      {
        "astId": 2887,
        "contract": "contracts/Keep3rV1Proxy.sol:Keep3rV1Proxy",
        "label": "pendingGovernance",
        "offset": 0,
        "slot": "1",
        "type": "t_address"
      },
      {
        "astId": 1242,
        "contract": "contracts/Keep3rV1Proxy.sol:Keep3rV1Proxy",
        "label": "keep3rV1",
        "offset": 0,
        "slot": "2",
        "type": "t_address"
      },
      {
        "astId": 1245,
        "contract": "contracts/Keep3rV1Proxy.sol:Keep3rV1Proxy",
        "label": "minter",
        "offset": 0,
        "slot": "3",
        "type": "t_address"
      },
      {
        "astId": 1265,
        "contract": "contracts/Keep3rV1Proxy.sol:Keep3rV1Proxy",
        "label": "caps",
        "offset": 0,
        "slot": "4",
        "type": "t_mapping(t_address,t_uint256)"
      },
      {
        "astId": 1270,
        "contract": "contracts/Keep3rV1Proxy.sol:Keep3rV1Proxy",
        "label": "next",
        "offset": 0,
        "slot": "5",
        "type": "t_mapping(t_address,t_uint256)"
      },
      {
        "astId": 1273,
        "contract": "contracts/Keep3rV1Proxy.sol:Keep3rV1Proxy",
        "label": "_recipients",
        "offset": 0,
        "slot": "6",
        "type": "t_struct(AddressSet)935_storage"
      }
    ],
    "types": {
      "t_address": {
        "encoding": "inplace",
        "label": "address",
        "numberOfBytes": "20"
      },
      "t_array(t_bytes32)dyn_storage": {
        "base": "t_bytes32",
        "encoding": "dynamic_array",
        "label": "bytes32[]",
        "numberOfBytes": "32"
      },
      "t_bytes32": {
        "encoding": "inplace",
        "label": "bytes32",
        "numberOfBytes": "32"
      },
      "t_mapping(t_address,t_uint256)": {
        "encoding": "mapping",
        "key": "t_address",
        "label": "mapping(address => uint256)",
        "numberOfBytes": "32",
        "value": "t_uint256"
      },
      "t_mapping(t_bytes32,t_uint256)": {
        "encoding": "mapping",
        "key": "t_bytes32",
        "label": "mapping(bytes32 => uint256)",
        "numberOfBytes": "32",
        "value": "t_uint256"
      },
      "t_struct(AddressSet)935_storage": {
        "encoding": "inplace",
        "label": "struct EnumerableSet.AddressSet",
        "members": [
          {
            "astId": 934,
            "contract": "contracts/Keep3rV1Proxy.sol:Keep3rV1Proxy",
            "label": "_inner",
            "offset": 0,
            "slot": "0",
            "type": "t_struct(Set)634_storage"
          }
        ],
        "numberOfBytes": "64"
      },
      "t_struct(Set)634_storage": {
        "encoding": "inplace",
        "label": "struct EnumerableSet.Set",
        "members": [
          {
            "astId": 629,
            "contract": "contracts/Keep3rV1Proxy.sol:Keep3rV1Proxy",
            "label": "_values",
            "offset": 0,
            "slot": "0",
            "type": "t_array(t_bytes32)dyn_storage"
          },
          {
            "astId": 633,
            "contract": "contracts/Keep3rV1Proxy.sol:Keep3rV1Proxy",
            "label": "_indexes",
            "offset": 0,
            "slot": "1",
            "type": "t_mapping(t_bytes32,t_uint256)"
          }
        ],
        "numberOfBytes": "64"
      },
      "t_uint256": {
        "encoding": "inplace",
        "label": "uint256",
        "numberOfBytes": "32"
      }
    }
  }
}